:100000000C9498000C94C0000C94C0000C94C00098
:100010000C94C0000C94C0000C94C0000C94C00060
:100020000C94C0000C94C0000C94C0000C946706A3
:100030000C94C0000C94C0000C94C0000C94C00040
:100040000C941D060C94C0000C948C050C94660551
:100050000C94C0000C94C0000C94C0000C94C00020
:100060000C9428070C94C000084AD73B3BCE016E85
:1000700084BCBFFDC12F3D6C74319ABD56833DDAFF
:100080003D00C77F11BED9E4BB4C3E916BAAAABE0E
:10009000000000803F006932635772697465206612
:1000A00061696C65643A20000000000024002700AC
:1000B0002A0000000000250028002B00040404048E
:1000C0000404040402020202020203030303030302
:1000D00001020408102040800102040810200102DF
:1000E00004081020000000080002010000030407BB
:1000F00000000000000000004572726F72207265FF
:100100006164696E672073656E736F720069326334
:10011000526561642074696D656F7574006932633E
:1001200052656164206661696C65643A20000A105A
:1001300011241FBECFEFD8E0DEBFCDBF11E0A0E09D
:10014000B1E0E8EEF9E202C005900D92A633B107E6
:10015000D9F723E0A6E3B1E001C01D92AC35B207A8
:10016000E1F710E0C8E9D0E004C02197FE010E9449
:10017000E714C739D107C9F70E94D90A0C94F214C1
:100180000C940000FC01538D448D252F30E0842F0A
:1001900090E0821B930B541710F0CF9608950197AF
:1001A0000895FC01918D828D981761F0828DDF0199
:1001B000A80FB11D5D968C91928D9F5F9F73928F5A
:1001C00090E008958FEF9FEF0895FC01918D828D4F
:1001D000981731F0828DE80FF11D858D90E008951C
:1001E0008FEF9FEF0895FC01918D228D892F90E074
:1001F000805C9F4F821B91098F739927089588E334
:1002000092E00E94F30021E0892B09F420E0822F84
:100210000895FC01848DDF01A80FB11DA35ABF4FC3
:100220002C91848D90E001968F739927848FA689F5
:10023000B7892C93A089B1898C9180648C93938D1C
:10024000848D981306C00288F389E02D80818F7D0C
:1002500080830895EF92FF920F931F93CF93DF93C4
:10026000EC0181E0888F9B8D8C8D981305C0E88907
:10027000F989808185FD24C0F62E0B8D10E00F5F7B
:100280001F4F0F731127E02E8C8DE8120CC00FB694
:1002900007FCFACFE889F989808185FFF5CFCE0187
:1002A0000E940901F1CF8B8DFE01E80FF11DE35A89
:1002B000FF4FF0820B8FEA89FB898081806207C043
:1002C000EE89FF896083E889F98980818064808371
:1002D00081E090E0DF91CF911F910F91FF90EF901F
:1002E0000895CF93DF93EC01888D8823C9F0EA89C4
:1002F000FB89808185FD05C0A889B9898C9186FD1F
:100300000FC00FB607FCF5CF808185FFF2CFA8891B
:10031000B9898C9185FFEDCFCE010E940901E7CF0D
:10032000DF91CF91089580E090E0892B29F00E9421
:10033000FF0081110C940000089590E0FC01EC5145
:10034000FF4F3491FC01E053FF4F2491FC01E45432
:10035000FF4FE491EE2309F43BC0332339F13330EE
:1003600091F038F43130A9F0323001F584B58F7D49
:1003700012C0373091F03830A1F03430B9F48091A8
:1003800080008F7D03C0809180008F7780938000F4
:100390000DC084B58F7784BD09C08091B0008F7780
:1003A00003C08091B0008F7D8093B000F0E0EE0F2D
:1003B000FF1FEE54FF4FA591B4918FB7F894EC91C5
:1003C000611103C020952E2301C02E2B2C938FBFCB
:1003D00008952F923F924F925F926F927F928F92E9
:1003E0009F92AF92BF92CF92DF92EF92FF920F93C4
:1003F0001F93CF93DF93CDB7DEB76C970FB6F8940A
:10040000DEBF0FBECDBF1C014D8B5E8B6F8B788F17
:10041000C901B801D10150962D913D914D915C914A
:100420005397298B3A8B4B8B5C8B0E9498119B01C5
:10043000AC01F101648B758B868B978BC701B6017C
:100440000E940A14D1011C962D913D914D915C9111
:100450001F970E9499116D877E878F87988BD10196
:1004600094962D913D914D915C9197972D833E836C
:100470004F835887C701B6010E940A144B015C01E3
:10048000F101448C558C668C778C20A131A142A15E
:1004900053A129873A874B875C87A30192010E9469
:1004A000981129853A854B855C850E949811F10148
:1004B00020813181428153810E9499119B01AC01BD
:1004C000C701B6010E940A14D10158962D913D91A1
:1004D0004D915C915B970E94991169837A838B831C
:1004E0009C83A5019401C301B2010E9498112B01C4
:1004F0003C01A501940169857A858B859C850E94C4
:10050000981169877A878B879C87F10124813581CF
:1005100046815781C701B6010E940A149B01AC01B4
:100520006D817E818F8198850E949911698F7A8F64
:100530008B8F9C8FD10118962D913D914D915C919F
:100540001B9769817A818B819C810E9499116B0133
:100550007C019B01AC0169817A818B819C810E9425
:100560007C124B015C01A701960169857A858B8518
:100570009C850E947C126B017C012D853E854F85F8
:1005800058896D897E898F89988D0E9498116D8315
:100590007E838F8398879B01AC01C501B4010E94C3
:1005A0000A149B01AC016D857E858F8598890E9418
:1005B00099116D877E878F87988BF1016487758786
:1005C000868797872D813E814F815885C701B60167
:1005D0000E940A149B01AC0169897A898B899C89E4
:1005E0000E949911D10150966D937D938D939C93A8
:1005F000539729813A814B815C81C501B4010E94E6
:100600000A149B01AC0169817A818B819C810E94D3
:100610009811F101608F718F828F938FA3019201E6
:10062000C501B4010E940A149B01AC01C301B201CF
:100630000E949811D1015C966D937D938D939C934C
:100640005F9729813A814B815C81C701B6010E9485
:100650000A149B01AC0169857A858B859C850E9473
:100660009811F10160A371A382A393A3A301920146
:10067000C701B6010E940A149B01AC01698D7A8DF5
:100680008B8D9C8D0E949811D10194966D937D93D2
:100690008D939C9397976D857E858F8598896C96B1
:1006A0000FB6F894DEBF0FBECDBFDF91CF911F9183
:1006B0000F91FF90EF90DF90CF90BF90AF909F9001
:1006C0008F907F906F905F904F903F902F90089504
:1006D000CF92DF92EF92FF92CF93DF93EC016032E3
:1006E00082E078070CF03DC077FD06C0653B7105E0
:1006F0002CF064EB70E002C060E070E0898128E8D3
:1007000030E06901C81AD10887FDD394CC0CDD1CF8
:10071000CC0CDD1C0D2C000CEE08FF088A8128E5AE
:1007200032E0281B310987FD3395220F331F220F3A
:10073000331FC901330FAA0BBB0B9C01AD012C1950
:100740003D094E095F09DB010E945F1124EB30E097
:1007500040E050E00E943511C20ED31EE41EF51E8B
:10076000B60188818C3080F5998148E850E0491BBA
:10077000510997FD5395440F551F440F551F64179A
:10078000750784F09A8128E532E0291B310997FD2D
:100790003395220F331F220F331FAB012617370764
:1007A0000CF4A90142505109440F551F2FB7F8947A
:1007B00090E0FC01EE0FFF1F8E0F9F1FFC01EF5119
:1007C000FD4F528341832FBFDF91CF91FF90EF9078
:1007D000DF90CF900895CF93DF93DC018C918C3024
:1007E00008F06DC09B013327F901E053FF4F84915E
:1007F000F901E454FF4F2491222399F030E0220FB5
:10080000331FF901E855FF4FC591D491F901EE541A
:10081000FF4F259134919FB7F894E881E82BE88346
:100820009FBF8C91E82FF0E09F01220F331FE20F52
:10083000F31FEF51FD4F6F739081907C692B6083A4
:1008400011961C92119712961C9212976CE00E94BE
:10085000DB149CE0899FB001112440E050E09A0134
:10086000260F371FF901EE0FFF1F2E0F3F1FF90153
:10087000EF51FD4F908196FD16C04F5F5F4F4C309A
:10088000510569F781110FC01092800082E08093BA
:1008900081001092850010928400B19A80916F00BF
:1008A000826080936F00EC91F0E0CF01880F991F78
:1008B000E80FF91FEF51FD4F8081806480838C9198
:1008C000DF91CF91089585ED8093BC008091BC00AD
:1008D00084FDFCCF10921302089540915801262FF9
:1008E00030E0240F311D21323105DCF42091130258
:1008F0002430C9F4FC0180E090E0861758F4309170
:1009000058012191DC01AA5CBE4FA30FB11D2C93AD
:100910000196F3CF80915801680F6093580180E0F1
:10092000089581E0089582E008950895E091DD0141
:100930008091DE01E81730F4F0E0E354FE4F80814F
:1009400090E008958FEF9FEF08959091DD018091E1
:10095000DE01981750F4E92FF0E0E354FE4F2081B8
:1009600030E09F5F9093DD0102C02FEF3FEFC901A0
:1009700008958091DE0190E02091DD01821B9109B4
:100980000895CF92DF92EF92FF920F931F93CF9330
:10099000DF937C01262F972F8A01809114028823F0
:1009A00091F0C62FD72F6E01C40ED51ECC15DD05D4
:1009B00071F06991D701ED91FC910190F081E02DEA
:1009C000C7010995F3CF642F822F0E946D04C801DF
:1009D000DF91CF911F910F91FF90EF90DF90CF901B
:1009E0000895CF93DF931F92CDB7DEB7698320912F
:1009F00014022223D1F020913702203240F021E06E
:100A000030E0FC013383228380E090E015C08091C8
:100A10001502E82FF0E0EA5EFD4F998190838F5F29
:100A2000809315028093370205C061E0CE010196E4
:100A30000E946D0481E090E00F90DF91CF910895C6
:100A4000089580E090E008950E94ED140F931F93A5
:100A5000CF93DF9300D0CDB7DEB78B0191E09093B9
:100A6000140298E690933602109215021092370203
:100A7000682F85ED92E02A8349830E94F104498121
:100A800050E0B80185ED92E00E94C1042A81822FD6
:100A90000E94F508182F882389F086E990E00E94CB
:100AA000D408812F90E0A0E0B0E04AE0BC01CD0185
:100AB0000E94930884E291E00E948108812F0F90A8
:100AC0000F90DF91CF911F910F9108951F920F9278
:100AD0000FB60F9211242F933F934F935F936F9311
:100AE0007F938F939F93AF93BF93EF93FF9388E38D
:100AF00092E00E940901FF91EF91BF91AF919F9108
:100B00008F917F916F915F914F913F912F910F90B6
:100B10000FBE0F901F9018951F920F920FB60F9255
:100B200011242F938F939F93EF93FF93E0914802AB
:100B3000F09149028081E0914E02F0914F0282FDD6
:100B400012C09081809151028F5F8F732091520269
:100B5000821751F0E0915102F0E0E85CFD4F958F73
:100B60008093510201C08081FF91EF919F918F91FD
:100B70002F910F900FBE0F901F9018953FB7F894CC
:100B80008091830190918401A0918501B0918601AB
:100B900026B5A89B05C02F3F19F00196A11DB11DD8
:100BA0003FBFBA2FA92F982F8827820F911DA11D13
:100BB000B11DBC01CD0142E0660F771F881F991F50
:100BC0004A95D1F708958F929F92AF92BF92CF929C
:100BD000DF92EF92FF926B017C010E94BE054B01F8
:100BE0005C01C114D104E104F104F1F00E94BE05DE
:100BF000DC01CB0188199909AA09BB09883E9340F9
:100C0000A105B10570F321E0C21AD108E108F1088D
:100C100088EE880E83E0981EA11CB11CC114D1047B
:100C2000E104F10419F7DDCFFF90EF90DF90CF9052
:100C3000BF90AF909F908F9008951F920F920FB624
:100C40000F9211242F933F938F939F93AF93BF9352
:100C500080917F0190918001A0918101B0918201EA
:100C600030917E0123E0230F2D3720F40196A11D42
:100C7000B11D05C026E8230F0296A11DB11D2093CA
:100C80007E0180937F0190938001A0938101B093B6
:100C900082018091830190918401A0918501B0919E
:100CA00086010196A11DB11D80938301909384015B
:100CB000A0938501B0938601BF91AF919F918F91D1
:100CC0003F912F910F900FBE0F901F9018951F927C
:100CD0000F920FB60F9211242F933F934F935F9370
:100CE0006F937F938F939F93AF93BF93EF93FF93F4
:100CF00080917D0187FF05C01092850010928400CD
:100D00001BC020917D01022E000C330B8091050346
:100D100090E02817390784F480917D01082E000C9B
:100D2000990BFC01EE0FFF1F8E0F9F1FFC01EF516F
:100D3000FD4F808186FD15C080917D018F5F80937E
:100D40007D0120917D01022E000C330B8091050363
:100D500090E028173907C4F480917D018C3064F14C
:100D600013C080917D01082E000C990BFC01EE0F41
:100D7000FF1F8E0F9F1FFC01EF51FD4F808160E030
:100D80008F730E949D01D8CF80918400909185003F
:100D9000049680349C4918F480E49CE905C0809155
:100DA0008400909185000496909389008093880038
:100DB0008FEF80937D013BC02091840030918500AE
:100DC00080917D01082E000C990BFC01EE0FFF1F96
:100DD0008E0F9F1FFC01EF51FD4F81819281820F89
:100DE000931F909389008093880080917D01082E45
:100DF000000C990BFC01EE0FFF1F8E0F9F1FFC01D3
:100E0000EF51FD4F808186FF12C080917D01082E39
:100E1000000C990BFC01EE0FFF1F8E0F9F1FFC01B2
:100E2000EF51FD4F808161E08F730E949D01FF9122
:100E3000EF91BF91AF919F918F917F916F915F9152
:100E40004F913F912F910F900FBE0F901F901895CB
:100E50001F920F920FB60F9211242F933F934F932F
:100E60005F936F937F938F939F93AF93BF93EF9312
:100E7000FF938091B900887F803609F49CC068F5A3
:100E8000883209F45BC090F4803109F454C038F41E
:100E9000882309F4F6C0883009F44DC0F6C08831C3
:100EA00009F44CC0803209F45DC0EFC0803409F40D
:100EB00068C048F4803309F455C0883309F0E5C0B0
:100EC00080931102D8C0803509F44FC0883509F4E9
:100ED0005DC0883409F0D9C0D6C0883909F4C7C0CC
:100EE000A8F4883709F467C038F4883609F463C079
:100EF000803709F460C0C9C0883809F4B8C08039A7
:100F000009F45FC0803809F0C0C05BC0803B09F4C1
:100F100086C038F4803A09F466C0883A09F47FC084
:100F2000B4C0803C09F4A7C0883C09F4A4C0883B45
:100F300009F48AC0AAC08091EE0110C090911002FD
:100F400080910F02981770F5E091100281E08E0FEA
:100F500080931002F0E0E151FE4F80818093BB004E
:100F600085EC86C0809311028EC0E091100281E072
:100F70008E0F809310028091BB00F0E0E151FE4F94
:100F800080839091100280910F026EC0E091100258
:100F900081E08E0F809310028091BB00F0E0E15160
:100FA000FE4F80838091120281116DC081E0809399
:100FB000ED0184EA61C083E08093130210927C010A
:100FC000CFCF80917C01803208F051C0E0917C014C
:100FD00081E08E0F80937C018091BB00F0E0E45AA9
:100FE000FE4F8083BDCF85EC8093BC00109213022E
:100FF00080917C01803230F4E0917C01F0E0E45A91
:10100000FE4F108260917C0170E0E0915A01F091F6
:101010005B018CE591E0099510927C0136C084E07B
:10102000809313021092590110925801E0915601D9
:10103000F0915701099580915801811105C081E017
:101040008093580110923601E091590181E08E0F92
:1010500080935901F0E0EA5CFE4F80818093BB00F1
:101060009091590180915801981708F479CF85E83B
:101070008093BC000AC085EC8093BC0010921302E0
:1010800004C0109211020E946304FF91EF91BF917E
:10109000AF919F918F917F916F915F914F913F9110
:1010A0002F910F900FBE0F901F901895CF92DF9247
:1010B000EF92FF920F931F93CF93DF936C017A010E
:1010C0008B01C0E0D0E0CE15DF0589F0D8016D912D
:1010D0008D01D601ED91FC910190F081E02DC601CA
:1010E0000995892B11F47E0102C02196ECCFC7012E
:1010F000DF91CF911F910F91FF90EF90DF90CF90F4
:101100000895009769F0FC0101900020E9F73197FC
:10111000AF01481B590BBC0188E392E00C945608C0
:1011200080E090E008958F929F92AF92BF920F93CC
:101130001F93CF93DF93CDB7DEB7A1970FB6F89487
:10114000DEBF0FBECDBF19A2423008F44AE08E01C7
:101150000F5D1F4F842E912CA12CB12CA501940161
:101160000E946711E62FB901CA0101501109EA3046
:1011700014F4E05D01C0E95CD801EC93232B242B2F
:10118000252B61F7C8010E948108A1960FB6F8943B
:10119000DEBF0FBECDBFDF91CF911F910F91BF90EA
:1011A000AF909F908F9008950F931F93CF93DF93ED
:1011B0008C01C0E0D0E0F801EC0FFD1F64916623C4
:1011C00071F0E0913802F09139020190F081E02D48
:1011D00088E392E00995892B11F02196ECCFCE019E
:1011E000DF91CF911F910F910895382F20913702F1
:1011F00090913602213208F049C08091130281118A
:10120000FCCF42E040931302309312023FEF309341
:1012100011021092100220930F02A6E1B2E04FEEED
:1012200051E0FA013E2F341B321718F43D913193EF
:10123000F9CF1092EE012091EE01990F922B90932D
:10124000EE019091ED01913061F41092ED019091D9
:10125000EE019093BB009091BC0093FDF8CF95EC0C
:1012600001C095EE9093BC00909113029230E1F38F
:10127000909111029F3F79F080911102803241F0EC
:1012800080911102803331F084E005C081E003C019
:1012900082E001C083E01092150210923702109292
:1012A00014020895CF92DF92EF92FF920F931F9353
:1012B000CF93DF93F62E91E09093140298E69093EB
:1012C00036021092150210923702682F85ED92E0D7
:1012D0000E94F10480E00E94F508C82F882381F065
:1012E0008DE191E00E94D4086C2F70E080E090E0E6
:1012F0004AE00E94930884E291E00E94810879C04C
:10130000C0911302C111FCCFDF2D20E22F1508F48C
:10131000D0E281E080931302809312029FEF9093BA
:101320001102109210029D0F90930F028093EE0114
:101330008091EE01806D8093EE018091ED0181300E
:1013400061F41092ED018091EE018093BB008091D9
:10135000BC0083FDF8CF85EC01C085EE8093BC0016
:10136000809113028130E1F3809110028D1710F407
:10137000D0911002AFEEB1E02DEB31E0F9018E2FEC
:10138000821B8D1718F48D918193F9CF1092DD0196
:10139000D093DE018FEDC82E81E0D82E8601802FFC
:1013A0008C198F1530F58091DD01D81741F085ED4E
:1013B00092E00E94A504F80181938F01F0CF0E9472
:1013C000BE056B017C010E94BE05DC01CB018C19BE
:1013D0009D09AE09BF09883E9340A105B10598F368
:1013E0008DE091E00E94D40884E291E00E9481089F
:1013F000C5E08C2FDF91CF911F910F91FF90EF905F
:10140000DF90CF9008950C9481088F929F92AF92B5
:10141000BF92CF92DF92EF92FF92CF93DF936B0157
:101420007C019B01AC010E94C114882319F089E260
:1014300091E027C046015701E894B7F82FEF3FEF3E
:101440004FE75FE7C501B4010E94C11481110DC0CF
:101450002FEF3FEF4FE75FE7C501B4010E9477121E
:1014600018161CF48DE291E00CC02FEF3FEF4FE710
:101470005FE4C701B6010E94FD13181674F481E3FE
:1014800091E0DF91CF91FF90EF90DF90CF90BF90F0
:10149000AF909F908F900C9481082FEF3FEF4FE714
:1014A0005FECC701B6010E94771287FDE8CF20E00C
:1014B00030E0A901C701B6010E94771287FF11C071
:1014C000E0913802F09139020190F081E02D6DE257
:1014D00088E392E00995EC01F7FAF094F7F8F094BC
:1014E00002C0C0E0D0E02AE037ED43EA5BE3C70189
:1014F000B6010E9499114B015C010E94F5126B012B
:101500007C010E9424139B01AC01C501B4010E941F
:1015100098114B015C014AE0C701B6010E94930893
:10152000C80FD91FE0913802F09139020190F08183
:10153000E02D6EE288E392E00995C80FD91F20E004
:1015400030E040E251E4C501B4010E940A144B01AD
:101550005C010E94F5126B01E12CF12C4AE0C701FD
:10156000B6010E949308C80FD91FC701B6010E9497
:1015700024139B01AC01C501B4010E94981120E025
:1015800030E040E251E40E940A140E94F51280E02B
:1015900090E04AE00E9493088C0F9D1FDF91CF914D
:1015A000FF90EF90DF90CF90BF90AF909F908F9083
:1015B0000895CF93DF93CDB7DEB769970FB6F89450
:1015C000DEBF0FBECDBF789484B5826084BD84B584
:1015D000816084BD85B5826085BD85B5816085BD2E
:1015E00080916E00816080936E00109281008091E6
:1015F000810082608093810080918100816080936E
:101600008100809180008160809380008091B10092
:1016100084608093B1008091B00081608093B000BD
:1016200080917A00846080937A0080917A00826051
:1016300080937A0080917A00816080937A00809113
:101640007A00806880937A001092C100E09148028D
:10165000F091490282E08083E0914402F0914502DA
:101660001082E0914602F091470280E1808310925F
:101670005002E0914C02F0914D0286E08083E091AF
:101680004A02F0914B02808180618083E0914A029E
:10169000F0914B02808188608083E0914A02F09152
:1016A0004B02808180688083E0914A02F0914B0276
:1016B00080818F7D80831092DD011092DE01109277
:1016C0001502109237021092130281E080931202E9
:1016D0001092ED0161E082E10E949D0161E083E1F1
:1016E0000E949D018091B9008E7F8093B900809106
:1016F000B9008D7F8093B90088E48093B80085E4B9
:101700008093BC008CE08093B8006AE070E089E0D0
:1017100093E00E94EB036BE070E086E093E00E94B0
:10172000EB0362E370E080E090E00E94E30560E09C
:1017300070E089E093E00E9468036CE370E086E06B
:1017400093E00E94680364EF71E080E090E00E9403
:10175000E30564EB70E089E093E00E94680368E7CA
:1017600070E086E093E00E94680364EF71E080E03F
:1017700090E00E94E30560E070E089E093E00E9461
:1017800068036AE570E086E093E00E94680364EF16
:1017900071E080E090E00E94E30587E08093DF0144
:1017A0001092E0011092E1011092E20120E044E089
:1017B0006FED71E089E10E9426058111F7CF11E0FC
:1017C000198321E041E0BE016F5F7F4F8BE60E94ED
:1017D00026058111F5CF61E085E70E94520981114C
:1017E000FACF8091DF01883629F088EF90E00E94DF
:1017F000D408FFCF64E670E080E090E00E94E3054B
:1018000066E08BE30E9452098111FACF6091DF01FB
:1018100070E0762F66278091E001682B072E000C80
:10182000880B990B0E9426136A837B838C839D838C
:101830006093B9017093BA018093BB019093BC018E
:101840006091E10170E0762F66278091E201682BBC
:10185000072E000C880B990B0E9426134B015C018C
:101860006093B5017093B6018093B7019093B8016E
:101870006091E30170E0762F66278091E401682B88
:10188000072E000C880B990B0E9426136B017C011C
:101890006093B1017093B2018093B3019093B4014E
:1018A0009B01AC01C501B4010E94181221EE3EE279
:1018B00045E652E40E940A142B013C01A501940163
:1018C000C501B4010E940A144B015C01A7019601F5
:1018D000C701B6010E940A149B01AC01C501B40105
:1018E0000E9499110E947D149B01AC016A817B8149
:1018F0008C819D8190580E947C120E94481221EE9A
:101900003EE245E652E40E940A144092400350929F
:1019100041036092420370924303609318037093F3
:10192000190380931A0390931B03409293015092E2
:101930009401609295017092960160938B0170936F
:101940008C0180938D0190938E014092970150926B
:1019500098016092990170929A0160938701709347
:1019600088018093890190938A010E94BE0560934B
:101970009F017093A0018093A1019093A2016EE05A
:101980008BE30E9452098111FACF6091DF0170E070
:10199000762F66278091E001682B072E000C880BBC
:1019A000990B0E9426136E837F83888799876093A3
:1019B000B9017093BA018093BB019093BC0160910F
:1019C000E10170E0762F66278091E201682B072EF7
:1019D000000C880B990B0E9426134B015C0160934D
:1019E000B5017093B6018093B7019093B8016091EF
:1019F000E30170E0762F66278091E401682B072EC3
:101A0000000C880B990B0E9426136B017C016093DC
:101A1000B1017093B2018093B3019093B4018091AE
:101A2000E50190E0982F88272091E601822B909382
:101A3000B0018093AF016091E70170E0762F6627D7
:101A40008091E801682B072E000C880B990B0E94EF
:101A500026132B013C016093AB017093AC01809382
:101A6000AD019093AE016091E90170E0762F662799
:101A70008091EA01682B072E000C880B990B0E94BD
:101A800026136A877B878C879D876093A701709355
:101A9000A8018093A9019093AA016091EB0170E0E5
:101AA000762F66278091EC01682B072E000C880B9F
:101AB000990B0E9426136093A3017093A401809355
:101AC000A5019093A6010E94BE0500919F0110916F
:101AD000A0012091A1013091A201601B710B820B2A
:101AE000930B0E94241320E034E244E759E40E945F
:101AF0007C126E877F87888B998B0E94BE056093CE
:101B00009F017093A0018093A1019093A201A7016E
:101B10009601C501B4010E94181221EE3EE245E68D
:101B200052E40E940A146A837B838C839D83A501FF
:101B30009401C501B4010E940A144B015C01A70184
:101B40009601C701B6010E940A149B01AC01C501B0
:101B5000B4010E9499110E947D149B01AC016E8119
:101B60007F818885998590580E947C120E94481236
:101B700021EE3EE245E652E40E940A146A8B7B8B1A
:101B80008C8B9D8B20E030E043E053E4C301B20135
:101B90000E947C124B015C0120E030E043E053E402
:101BA0006A857B858C859D850E947C122B013C017A
:101BB00020E030E044EB52EC6A817B818C819D8196
:101BC0000E94771287FF10C020E030E044EB52E41F
:101BD00060919B0170919C0180919D0190919E016B
:101BE0000E94FD131816E4F020E030E044EB52E4CC
:101BF0006A817B818C819D810E94FD131816ACF552
:101C000020E030E044EB52EC60919B0170919C012C
:101C100080919D0190919E010E94771287FF25C0BF
:101C20008A819B81AC81BD81809340039093410365
:101C3000A0934203B093430380939701909398013C
:101C4000A0939901B0939A0180939B0190939C017A
:101C5000A0939D01B0939E01809393019093940172
:101C6000A0939501B093960116C0CE84DF84E888D6
:101C7000F988950184014A815B816C817D8184E3CF
:101C800093E00E94E90160939B0170939C01809313
:101C90009D0190939E0180919B0190919C01A09148
:101CA0009D01B0919E018E839F83A887B98720E014
:101CB00030E0A901BC01CD010E94FD1318166CF49F
:101CC00020E030E044EB52E46E817F818885998585
:101CD0000E94FD1318166CF010C020E030E044EBB9
:101CE00052EC6E817F81888599850E94771287FFEB
:101CF00004C077FA709477F87094CE84DF84E88813
:101D0000F988930182014A895B896C897D898CE01D
:101D100093E00E94E9016A877B878C879D876093A7
:101D20008F017093900180939101909392012E8581
:101D30003F8548895989C501B4010E940A146B0185
:101D40007C01209193013091940140919501509133
:101D500096010E9499116E8B7F8B888F998F60936B
:101D600093017093940180939501909396012E8531
:101D70003F8548895989C301B2010E940A142B0189
:101D80003C0120918B0130918C0140918D0150914B
:101D90008E010E9499114B015C0160938B0170933D
:101DA0008C0180938D0190938E0120919701309149
:101DB00098014091990150919A01C701B6010E9482
:101DC00099112BE734E14EE65FE30E940A146B01A0
:101DD0007C0129E23CE54FE85DE36A817B818C81EF
:101DE0009D810E940A149B01AC01C701B6010E94AB
:101DF0009911609397017093980180939901909342
:101E00009A01209187013091880140918901509178
:101E10008A01C301B2010E9499112BE734E14EE619
:101E20005FE30E940A146B017C0129E23CE54FE864
:101E30005DE36A897B898C899D890E940A149B01D4
:101E4000AC01C701B6010E9499116093870170939C
:101E500088018093890190938A0120E030E044E377
:101E600053EC6E897F89888D998D0E94771287FD4A
:101E70000CC020E030E044E353E46E897F89888D14
:101E8000998D0E94FD13181664F48E819F81A88598
:101E9000B9858093930190939401A0939501B09399
:101EA000960120E030E044E353ECC501B4010E9408
:101EB000771287FD0AC020E030E044E353E4C50117
:101EC000B4010E94FD13181664F48A859B85AC85C5
:101ED000BD8580938B0190938C01A0938D01B0936D
:101EE0008E012A853B854C855D8560E070E084EB42
:101EF00092E40E9498110E94EE1289E093E00E9401
:101F0000680320E030E044EB52E46E817F818885F5
:101F100099850E9499110E94EE1286E093E00E943A
:101F200068036A817B818C819D810E94050A87E21A
:101F300091E00E94030A6091930170919401809155
:101F40009501909196010E94050A87E291E00E9416
:101F5000030A609197017091980180919901909185
:101F60009A010E94050A87E291E00E94030A6091AB
:101F70009B0170919C0180919D0190919E010E9416
:101F8000050A87E291E00E94030A87E291E00E943D
:101F9000030A6A897B898C899D890E94050A87E2E8
:101FA00091E00E94030A60918B0170918C018091F5
:101FB0008D0190918E010E94050A87E291E00E94B6
:101FC000030A609187017091880180918901909145
:101FD0008A010E94050A87E291E00E94030A60914B
:101FE0008F017091900180919101909192010E94D6
:101FF000050A87E291E00E94030A84E291E00E94D0
:10200000030A62E070E080E090E00E94E3050E9435
:102010009301B5CC0F931F9310923B0210923A029A
:1020200088EE93E0A0E0B0E080933C0290933D0204
:10203000A0933E02B0933F0224E031E03093390296
:102040002093380225EC30E030934502209344027F
:1020500024EC30E0309347022093460220EC30E03D
:10206000309349022093480221EC30E030934B0238
:1020700020934A0222EC30E030934D0220934C0230
:1020800026EC30E030934F0220934E021092510222
:102090001092520210925302109254021092D802DF
:1020A0001092D7028093D9029093DA02A093DB02B8
:1020B000B093DC0286E191E09093D6028093D50242
:1020C0000FE612E123E83AE300933403109335035B
:1020D000209336033093370346EA5BE964E47BE3FD
:1020E000409338035093390360933A0370933B0352
:1020F0008FE892ECA5EFBCE380933C0390933D0303
:10210000A0933E03B0933F0310924003109241030B
:10211000109242031092430310924403109245031D
:10212000109246031092470310924C0310924D03F5
:1021300010924E0310924F031092500310925103CD
:1021400010925203109253031092540310925503AD
:10215000109256031092570310925803109259038D
:1021600010925A0310925B0300930C0310930D031B
:1021700020930E0330930F034093100350931103E9
:1021800060931203709313038093140390931503C9
:10219000A0931603B093170310921803109219031B
:1021A00010921A0310921B0310921C0310921D032D
:1021B00010921E0310921F03109224031092250305
:1021C00010922603109227031092280310922903DD
:1021D00010922A0310922B0310922C0310922D03BD
:1021E00010922E0310922F0310923003109231039D
:1021F0001092320310923303809105038C30A0F4C7
:1022000091E0980F909305038093090390E0FC01FF
:10221000EE0FFF1F8E0F9F1FFC01EF51FD4F88EB4C
:102220009BE09283818303C08FEF809309038091A9
:1022300005038C30A0F491E0980F909305038093F0
:10224000060390E0FC01EE0FFF1F8E0F9F1FFC01A5
:10225000EF51FD4F88EB9BE09283818303C08FEFAA
:10226000809306031F910F910895052E97FB1EF48E
:1022700000940E944C1157FD07D00E94671107FC83
:1022800003D04EF40C944C11509540953095219507
:102290003F4F4F4F5F4F0895909580957095619592
:1022A0007F4F8F4F9F4F08950E948911A59F900DDA
:1022B000B49F900DA49F800D911D11240895B7FF28
:1022C0000C9454110E945411821B930B0895A1E2A7
:1022D0001A2EAA1BBB1BFD010DC0AA1FBB1FEE1FA0
:1022E000FF1FA217B307E407F50720F0A21BB30BEB
:1022F000E40BF50B661F771F881F991F1A9469F767
:1023000060957095809590959B01AC01BD01CF01C2
:102310000895A29FB001B39FC001A39F700D811DBE
:102320001124911DB29F700D811D1124911D0895DE
:102330005058BB27AA270E94B0110C94C3130E94C7
:10234000B51338F00E94BC1320F039F49F3F19F404
:1023500026F40C948B130EF4E095E7FB0C94851394
:10236000E92F0E94D41358F3BA1762077307840742
:10237000950720F079F4A6F50C94F6130EF4E09589
:102380000B2EBA2FA02D0B01B90190010C01CA012F
:10239000A0011124FF27591B99F0593F50F4503EDA
:1023A00068F11A16F040A22F232F342F4427585FCC
:1023B000F3CF469537952795A795F0405395C9F7E4
:1023C0007EF41F16BA0B620B730B840BBAF091509C
:1023D000A1F0FF0FBB1F661F771F881FC2F70EC03B
:1023E000BA0F621F731F841F48F48795779567950E
:1023F000B795F7959E3F08F0B0CF9395880F08F0FA
:102400009927EE0F9795879508950E94B51360F070
:1024100080E891E009F49EEF0E94BC1328F040E8A8
:1024200051E071F45EEF0CC00C948B130C94F61316
:10243000E92FE0780E94D41340F3092E052AB1F366
:10244000261737074807590738F00E2E07F8E025FA
:1024500069F0E025E0640AC0EF6307F8009407FA2A
:10246000DB01B9019D01DC01CA01AD01EF930E94BE
:1024700093120E94C3130E9448125F91552339F0B2
:102480002BED3FE049E450FD49EC0C94991108957F
:10249000DF93DD27B92FBF7740E85FE316161706F5
:1024A00048075B0718F4D92F0E9402149F938F935B
:1024B0007F936F930E94BD14E8E6F0E00E948E13B4
:1024C0000E94C3132F913F914F915F910E941D1461
:1024D000DD2351F09058A2EA2AED3FE049EC5FE39A
:1024E000D0785D270E94B011DF910C94C3130E9435
:1024F000611308F481E008950E9490120C94C313B4
:102500000E94BC1358F00E94B51340F029F45F3FBD
:1025100029F00C94851351110C94F7130C948B1320
:102520000E94D41368F39923B1F3552391F3951BBB
:10253000550BBB27AA2762177307840738F09F5FE4
:102540005F4F220F331F441FAA1FA9F335D00E2E51
:102550003AF0E0E832D091505040E695001CCAF7BE
:102560002BD0FE2F29D0660F771F881FBB1F261781
:1025700037074807AB07B0E809F0BB0B802DBF0158
:10258000FF2793585F4F3AF09E3F510578F00C9427
:1025900085130C94F7135F3FE4F3983ED4F38695CC
:1025A00077956795B795F7959F5FC9F7880F911D48
:1025B0009695879597F90895E1E0660F771F881F34
:1025C000BB1F621773078407BA0720F0621B730BE7
:1025D000840BBA0BEE1F88F7E09508950E94F51260
:1025E0006894B1110C94F71308950E94DC1388F0DD
:1025F0009F5798F0B92F9927B751B0F0E1F0660FC7
:10260000771F881F991F1AF0BA95C9F714C0B13007
:1026100091F00E94F613B1E008950C94F613672F21
:10262000782F8827B85F39F0B93FCCF38695779536
:102630006795B395D9F73EF490958095709561951F
:102640007F4F8F4F9F4F0895E89409C097FB3EF44A
:1026500090958095709561957F4F8F4F9F4F9923EF
:10266000A9F0F92F96E9BB279395F695879577956D
:102670006795B795F111F8CFFAF4BB0F11F460FF2D
:102680001BC06F5F7F4F8F4F9F4F16C0882311F085
:1026900096E911C0772321F09EE8872F762F05C099
:1026A000662371F096E8862F70E060E02AF09A9534
:1026B000660F771F881FDAF7880F9695879597F929
:1026C0000895990F0008550FAA0BE0E8FEEF1616C3
:1026D0001706E807F907C0F012161306E407F50716
:1026E00098F0621B730B840B950B39F40A2661F08A
:1026F000232B242B252B21F408950A2609F4A1402D
:10270000A6958FEF811D811D089597F99F6780E839
:1027100070E060E008959FEF80EC0895DF93CF9321
:102720001F930F93FF92EF92DF927B018C016894CD
:1027300006C0DA2EEF010E941D14FE01E894A59157
:102740002591359145915591A6F3EF010E94B01165
:10275000FE019701A801DA9469F7DF90EF90FF90EE
:102760000F911F91CF91DF91089500240A941616BE
:10277000170618060906089500240A94121613066F
:10278000140605060895092E0394000C11F48823FD
:1027900052F0BB0F40F4BF2B11F460FF04C06F5F19
:1027A0007F4F8F4F9F4F089557FD9058440F551FEF
:1027B00059F05F3F71F04795880F97FB991F61F0C3
:1027C0009F3F79F087950895121613061406551F3A
:1027D000F2CF4695F1DF08C0161617061806991FA6
:1027E000F1CF86957105610508940895E894BB279B
:1027F00066277727CB0197F908950E94611308F4A3
:102800008FEF08959B01AC0160E070E080E89FE3EA
:102810000C947C120E941D140C94C3130E94B513D7
:1028200038F00E94BC1320F0952311F00C9485130E
:102830000C948B1311240C94F7130E94D41370F38F
:10284000959FC1F3950F50E0551F629FF001729F55
:10285000BB27F00DB11D639FAA27F00DB11DAA1F64
:10286000649F6627B00DA11D661F829F2227B00DB1
:10287000A11D621F739FB00DA11D621F839FA00D3C
:10288000611D221F749F3327A00D611D231F849F8C
:10289000600D211D822F762F6A2F11249F575040E3
:1028A0009AF0F1F088234AF0EE0FFF1FBB1F661F5E
:1028B000771F881F91505040A9F79E3F510580F027
:1028C0000C9485130C94F7135F3FE4F3983ED4F314
:1028D000869577956795B795F795E7959F5FC1F7CB
:1028E000FE2B880F911D9695879597F9089519F4F9
:1028F00016F40C948B130C94C6140E94DC13B8F3DA
:102900009923C9F3B6F39F57550B87FF0E94D41440
:102910000024A0E640EA900180585695979528F447
:10292000805C660F771F881F20F02617370748073F
:1029300030F4621B730B840B202931294A2BA69596
:1029400017940794202531254A2758F7660F771FDB
:10295000881F20F026173707480730F4620B730BE7
:10296000840B200D311D411DA09581F7B901842FE5
:102970009158880F9695879508959B01AC010C940A
:102980000A140E946113880B990B08959F3F31F040
:10299000915020F4879577956795B795880F911D8D
:1029A0009695879597F9089591505040660F771F37
:1029B000881FD2F70895991B79E004C0991F9617D4
:1029C00008F0961B881F7A95C9F780950895EE0F39
:1029D000FF1F0590F491E02D099481E090E0F894B8
:0829E0000C94F214F894FFCFEF
:1029E800000000002A015608C2007101F300D1005E
:1029F800E50000000000F104C10421059504B904B4
:102A0800A50496040D0A0009006E616E00696E66E1
:062A1800006F766600006D
:00000001FF
